01REMESSA01COBRANCA       123400012342        NOME DA SUA EMPRESA           341BANCO ITAU SA  120313                                                                                                                                                                                                                                                                                                      000001
10200965290700010689600084362    0000BOLETO001                000000000000000000000109                     I01          31080800000000000003410000015A020808888600000000000000000000000000000000000000000000000000000000000200999999700010Cliente A                                                                                   00000000                                                   00000000 000002
10200965290700010689600084362    0000BOLETO002                000000000000000000000109                     I01          31080800000000000003410000015A020808888600000000000000000000000000000000000000000000000000000000000200999999700010Cliente B                                                                                   00000000                                                   00000000 000003
10200965290700010689600084362    0000BOLETO003                000000000000000000000109                     I01          31080800000000000003410000015A020808888600000000000000000000000000000000000000000000000000000000000200999999700010Cliente C                                                                                   00000000                                                   00000000 000004
10200965290700010689600084362    0000BOLETO004                000000000000000000000109                     I01          31080800000000000003410000015A020808888600000000000000000000000000000000000000000000000000000000000200999999700010Cliente D                                                                                   00000000                                                   00000000 000005
